:020000040000FA
:060000000A128A110E280D
:10000800FE00030EF4000408F5000A08F6000A12C0
:100018008A1118280A128A111128F701F801F90122
:1000280083010A128A112429831203130C1F1D2825
:100038001E2841280C137708031D2328242830285C
:1000480000300A128A1103210A128A11831203133B
:100058001E08F3007308F9007703031D34283528B8
:10006800412803300A128A1103210A128A118312C5
:1000780003131E08F3007308F8000B1D44284528D5
:1000880053280B11443081000130F3007308F7073F
:1000980003307702031C512852285328F7018C1D7E
:1000A800562857287B280A128A1178210A128A11A1
:1000B8008312031388000803031D632864286A2831
:1000C80079080A128A1188210A128A1102308312C9
:1000D80003130806031D71287228782878080A1265
:1000E8008A1188210A128A11831203138C11760847
:1000F8008A0075088400740E8300FE0E7E0E0900C7
:1001080083120313A200BE28831603130F128F1243
:100118000F13E028831603130F168F120F13E0280E
:10012800831603130F128F160F13E0288316031379
:100138000F168F160F13E028831603130F128F1252
:100148000F17E028831603130F168F120F17E028D6
:10015800831603130F128F160F17E0288316031345
:100168000F168F160F17E028831603130F128F161A
:100178000F17E0282208A000A1012108003A03195E
:10018800C628B8282008003A03198828013A031914
:100198008E28033A03199428013A03199A28073A32
:1001A8000319A028013A0319A628033A0319AC2811
:1001B800013A0319B228B8280F1408000930831629
:1001C8000313850086018701880109308316031708
:1001D80088008901E0308B00831203138C11831689
:1001E80003138C15851683120313A001A101A20124
:1001F80024300A128A1144210A128A110800F200D6
:100208001329831203131F119F111F129F122329F1
:10021800831203131F159F151F129F12232972089B
:10022800F000F1017108003A03191B29232970080D
:10023800003A03190529033A03190C292329080050
:1002480007300A128A1184200A128A110A128A11A6
:10025800E2200A128A110A128A1162210A128A11EC
:100268000A128A116F210A128A1183120313850157
:100278008601870188019F143F290A128A110E28D6
:1002880083120313A3008316031387128312031325
:10029800231D4F2950295629220883160313940039
:1002A80087155C29200822048316031394008711FC
:1002B80083120313230821049400080083120313F4
:1002C8001F179F13831603139F131F129F12831266
:1002D80003131F140800843083160313810044306D
:1002E80083120313810008000A128A1181210A125D
:1002F8008A11831203131308080083160313141CAE
:100308008629872981290800F000700883120313C1
:040318009300080046
:04400E00D4E0FFFFFC
:00000001FF
