:020000040000FA
:060000000A128A110E280D
:10000800FE00030EF4000408F5000A08F6000A12C0
:100018008A1176280A128A111128F701F801F901C4
:1000280083010A128A11DB2883120313A2005228C3
:10003800831603130F128F120F13742883160313DA
:100048000F168F120F137428831603130F128F16AF
:100058000F137428831603130F168F160F137428A3
:10006800831603130F128F120F17742883160313A6
:100078000F168F120F177428831603130F128F167B
:100088000F177428831603130F168F160F1774286B
:10009800831603130F128F160F1774282208A00057
:1000A800A1012108003A03195A284C282008003ACF
:1000B80003191C28013A03192228033A031928288E
:1000C800013A03192E28073A03193428013A03196B
:1000D8003A28033A03194028013A031946284C28BC
:1000E8000F140800831203130C1F7B287C289F28F9
:1000F8000C137708031D812882288E2800300A12E5
:100108008A11BA200A128A11831203131E08F300F7
:100118007308F9007703031D922893289F2803305A
:100128000A128A11BA200A128A11831203131E08AE
:10013800F3007308F8000B1DA228A328B1280B119F
:10014800443081000130F3007308F7070330770269
:10015800031CAF28B028B128F70176088A00750873
:100168008400740E8300FE0E7E0E0900F200CA2879
:10017800831203131F119F111F129F12DA28831273
:1001880003131F159F151F129F12DA287208F0001B
:10019800F1017108003A0319D228DA287008003AE8
:1001A8000319BC28033A0319C328DA2808000730C2
:1001B8000A128A1118200A128A110A128A11F920C1
:1001C8000A128A110A128A1108210A128A110A12BD
:1001D8008A1115210A128A118312031385018601D7
:1001E800870188010A128A110E2809308316031321
:1001F8008500860187018801093083160317880066
:100208008901E0308B000800831203131F179F1326
:10021800831603139F131F129F12831203131F14B5
:1002280008008430831603138100443083120313BB
:040238008100080039
:04400E00D4E0FFFFFC
:00000001FF
