:020000040000FA
:060000000A128A110C280F
:10000800FE00030EF1000A08F2000A128A11C8283D
:100018000A128A110F28F701F801F90183010A125F
:100028008A117228F5004E28831603130F128F12B7
:100038000F137028831603130F168F120F137028CF
:10004800831603130F128F160F13702883160313CA
:100058000F168F160F137028831603130F128F12A3
:100068000F177028831603130F168F120F17702897
:10007800831603130F128F160F1770288316031396
:100088000F168F160F177028831603130F128F166B
:100098000F1770287508F300F4017408003A031963
:1000A800562848287308003A03191828013A0319F2
:1000B8001E28033A03192428013A03192A28073A63
:1000C80003193028013A03193628033A03193C2842
:1000D800013A0319422848280F14080007300A1269
:1000E8008A1116200A128A110A128A11F9200A1294
:1000F8008A11831203131F139F17831603139F1369
:100108001F129F12831203131F1485018601870192
:100118008801033083120313A1009730A000A00BBD
:100128009328A10B9328831203131F119F111F12E9
:100138009F121F140C139F141E08A0002008F9001A
:100148000D3083120313A100FB30A000A00BAA28D6
:10015800A10BAA28831203131F159F151F129F12A4
:100168000C139F141E08A0002008F8000D308312FD
:100178000313A100FB30A000A00BC028A10BC028CE
:100188008D280A128A110C28831203138C1DCD287E
:10019800CE28F2280A128A112F210A128A118312F4
:1001A800031388000803031DDA28DB28E1287908EF
:1001B8000A128A113F210A128A110230831203138C
:1001C8000806031DE828E928EF2878080A128A118A
:1001D8003F210A128A11831203138C1172088A00B4
:1001E800710E8300FE0E7E0E09000930831603137C
:1001F80085008601083087008801093083160317B7
:1002080088008901E0308B00831203138C11831658
:1002180003138C158516F301F401F50124300A1235
:100228008A1119210A128A110800F600831603138D
:100238008712761D202921292529750894008715FC
:1002480029297308750494008711760874048312A9
:100258000313940008000A128A1138210A128A111D
:10026800831203131308080083160313141C3D2973
:100278003E2938290800F000700883120313930000
:0202880008006C
:04400E00D4E0FFFFFC
:00000001FF
