:020000040000FA
:060000000A128A110E280D
:10000800FE00030EF4000408F5000A08F6000A12C0
:100018008A1178280A128A111128F701831203130A
:10002800A601A70183010A128A11BC2883120313AF
:10003800A2005428831603130F128F120F13762869
:10004800831603130F168F120F13762883160313C4
:100058000F128F160F137628831603130F168F1699
:100068000F137628831603130F128F120F17762893
:10007800831603130F168F120F1776288316031390
:100088000F128F160F177628831603130F168F1665
:100098000F177628831603130F128F160F1776285B
:1000A8002208A000A1012108003A03195C284E2863
:1000B8002008003A03191E28013A03192428033A94
:1000C80003192A28013A03193028073A0319362850
:1000D800013A03193C28033A03194228013A031943
:1000E80048284E280F140800831203130C1F7D287C
:1000F8007E28A1280C137708031D832884289028BC
:1001080000300A128A11F6200A128A118312031388
:100118001E08F3007308A7007703031D9428952889
:10012800A12803300A128A11F6200A128A118312B2
:1001380003131E08F3007308A6000B1DA428A528A6
:10014800B3280B11443081000130F3007308F7071E
:1001580003307702031CB128B228B328F7017608C8
:100168008A0075088400740E8300FE0E7E0E090056
:1001780007300A128A111A200A128A110A128A11E1
:1001880035210A128A110A128A114F210A128A117C
:100198000A128A115C210A128A118312031385013B
:1001A800860187018801831203139F1427080A1206
:1001B8008A1165210A128A110D3083120313A500D2
:1001C800FB30A400A40BE628A50BE6288312031332
:1001D80026080A128A1165210A128A11D7280A12DA
:1001E8008A110E28F2000629831203131F119F118A
:1001F8001F129F121629831203131F159F151F1212
:100208009F1216297208F000F1017108003A0319CB
:100218000E2916297008003A0319F828033A031919
:10022800FF281629080083120313A300831603135B
:10023800871283120313231D22292329292922081F
:1002480083160313940087152F2920082204831688
:1002580003139400871183120313230821049400C5
:100268000800093083160313850086018701880179
:1002780009308316031788008901E0308B00831248
:100288000313A001A101A20124300A128A11172127
:100298000A128A110800831203131F179F1383166B
:1002A80003139F131F129F12831203131F140800B6
:1002B80084308316031381004430831203138100B2
:0E02C800080083120313A00020089300080012
:04400E00D4E0FFFFFC
:00000001FF
