:020000040000FA
:060000000A128A11FA2F1A
:100BB400F0007008831203139300080083160313D4
:100BC400141CE52DE62DE02D0800831203138C1E62
:100BD400EC2DED2DEE2D1A0808000A128A11E025DD
:100BE4000A128A118312031313080800F3008316F0
:100BF40003138712731DFF2D002E042E7208940018
:100C04008715082E70087204940087117308710404
:100C140083120313940008008316031385018601CD
:100C2400870187170716880183160317880189012E
:100C3400E0308B00F001F101F20120300A128A1138
:100C4400F8250A128A110800F2005E2E8316031397
:100C54000F128F120F13802E831603130F168F1289
:100C64000F13802E831603130F128F160F13802E6B
:100C7400831603130F168F160F13802E8316031378
:100C84000F128F120F17802E831603130F168F1255
:100C94000F17802E831603130F128F160F17802E33
:100CA400831603130F168F160F17802E8316031344
:100CB4000F128F160F17802E7208F000F1017108C1
:100CC400003A0319662E582E7008003A0319282E8C
:100CD400013A03192E2E033A0319342E013A03194B
:100CE4003A2E073A0319402E013A0319462E033AC5
:100CF40003194C2E013A0319522E582E0F140800D2
:100D0400831203132608AA002708AB002808AC00A6
:100D14002908AD0004300310AA0DAB0DAC0DAD0DC8
:100D2400FF3E031D8D2E2D08F3002C08F2002B0826
:100D3400F1002A08F0002608AE002708AF002808B2
:100D4400B0002908B10004300310AE0DAF0DB00D92
:100D5400B10DFF3E031DA62E0030B2001230B300C9
:100D64007A30B4000030B5002E08B2022F08031CFC
:100D74002F0FBD2EBE2EB3023008031C300FC32E1E
:100D8400C42EB4023108031C310FC92ECA2EB50279
:100D94003508F7003408F6003308F5003208F4008B
:100DA4000A128A115D270A128A1170088316031326
:100DB400990018151812831203139817181683161E
:100DC400031398161813831203131813080007301B
:100DD4000A128A1126260A128A110A128A110E266A
:100DE4000A128A11003083120313A9000030A800EC
:100DF4002530A7008030A6000A128A1182260A1222
:100E04008A118312031385018601870188010A125E
:100E14008A11E7250A128A11831203138600071127
:100E24000330FA009730F900F90B162FFA0B162F3E
:100E34001B2F01300A128A11DA250A128A110A12AA
:100E44008A11EF250A128A11F9007908FC0003308F
:100E5400FA009730F900F90B2D2FFA0B2D2F322FB2
:100E640083120313071507110330FA009730F900B2
:100E7400F90B3A2FFA0B3A2F3F2F02300A128A113C
:100E8400DA250A128A110A128A11EF250A128A1126
:100E9400F9007908FB000330FA009730F900F90BE8
:100EA400512FFA0B512F562F831203130715092FB5
:100EB4000A128A11002883120313A101F31F632F5E
:100EC400642F712FF009F109F209F309F00A0319EB
:100ED400F10A0319F20A0319F30AA101A10AF71F7F
:100EE400742F752F842FF409F509F609F709F40A0C
:100EF4000319F50A0319F60A0319F70A0130F80071
:100F04007808A1060030A5000030A4000030A3003A
:100F14000030A20073087204710470040319932F43
:100F2400942FE12FA001A00AA42F0130F800031090
:100F3400F00DF10DF20DF30DF80B992F0130F800BF
:100F44007808A007F31FA72FA82F972F0130F800C8
:100F54000310A20DA30DA40DA50DF80BAA2F730861
:100F64007702031DBF2F72087602031DBF2F71087D
:100F74007502031DBF2F70087402031CC22FC32FF8
:100F8400D22F7008F4027108031C710FF502720865
:100F9400031C720FF6027308031C730FF70222146A
:100FA40001300310F30CF20CF10CF00CFF3E031DA6
:100FB400D32F0130A002031DE02FE12FA82F210819
:100FC4000319E52FE62FF12FA209A309A409A50906
:100FD400A20A0319A30A0319A40A0319A50A2508D6
:100FE400F3002408F2002308F1002208F0000800AE
:0C0FF400FB01FC0183010A128A11E92EA6
:04400E00D4E0FFFFFC
:00000001FF
