:020000040000FA
:060000000A128A11FA2F1A
:100B7400F000700883120313930008008316031314
:100B8400141CC52DC62DC02D0800831203138C1E02
:100B9400CC2DCD2DCE2D1A0808000A128A11C0259D
:100BA4000A128A118312031313080800F000831633
:100BB4000313981CDE2DDF2DD92D70088312031327
:100BC40099000800F300831603138712731DEB2D9D
:100BD400EC2DF02D720894008715F42D7008720422
:100BE400940087117308710483120313940008009E
:100BF40083160313850186018701871788018316ED
:100C0400031788018901E0308B00F001F101F20142
:100C140020300A128A11E4250A128A110800F2000F
:100C2400492E831603130F128F120F136B2E831684
:100C340003130F168F120F136B2E831603130F1249
:100C44008F160F136B2E831603130F168F160F13A5
:100C54006B2E831603130F128F120F176B2E83162E
:100C640003130F168F120F176B2E831603130F1215
:100C74008F160F176B2E831603130F168F160F176D
:100C84006B2E831603130F128F160F176B2E720819
:100C9400F000F1017108003A0319512E432E700837
:100CA400003A0319132E013A0319192E033A0319B2
:100CB4001F2E013A0319252E073A03192B2E013A48
:100CC4000319312E033A0319372E013A03193D2E25
:100CD400432E0F140800831203132608AA002708C2
:100CE400AB002808AC002908AD0004300310AA0D9D
:100CF400AB0DAC0DAD0DFF3E031D782E2D08F3009A
:100D04002C08F2002B08F1002A08F0002608AE0097
:100D14002708AF002808B0002908B10004300310E8
:100D2400AE0DAF0DB00DB10DFF3E031D912E003081
:100D3400B2001230B3007A30B4000030B5002E088F
:100D4400B2022F08031C2F0FA82EA92EB3023008BD
:100D5400031C300FAE2EAF2EB4023108031C310F2A
:100D6400B42EB52EB5023508F7003408F600330862
:100D7400F5003208F4000A128A115D270A128A115A
:100D8400700883160313990018151812831203139D
:100D9400981718168316031398161813831203133F
:100DA4001813080007300A128A1111260A128A1130
:100DB4000A128A11FA250A128A11003083120313C7
:100DC400A9000030A8002530A7008030A6000A1230
:100DD4008A116D260A128A11831203138501860172
:100DE400870188010A128A11C7250A128A118312FF
:100DF4000313860007110330FA009730F900F90B4A
:100E0400012FFA0B012F062F01300A128A11BA257D
:100E14000A128A110A128A11CF250A128A11F900BC
:100E24007908FC000330FA009730F900F90B182F09
:100E3400FA0B182F1D2F8312031307150711033004
:100E4400FA009730F900F90B252FFA0B252F2A2FDA
:100E540002300A128A11BA250A128A110A128A1158
:100E6400CF250A128A11F9007908FB000330FA0031
:100E74009730F900F90B3C2FFA0B3C2F412F8312CA
:100E8400031307157C080A128A11D8250A128A113D
:100E94000D30FA00FB30F900F90B4E2FFA0B4E2FF0
:100EA400532F7B080A128A11D8250A128A11F42EAC
:100EB4000A128A11002883120313A101F31F632F5E
:100EC400642F712FF009F109F209F309F00A0319EB
:100ED400F10A0319F20A0319F30AA101A10AF71F7F
:100EE400742F752F842FF409F509F609F709F40A0C
:100EF4000319F50A0319F60A0319F70A0130F80071
:100F04007808A1060030A5000030A4000030A3003A
:100F14000030A20073087204710470040319932F43
:100F2400942FE12FA001A00AA42F0130F800031090
:100F3400F00DF10DF20DF30DF80B992F0130F800BF
:100F44007808A007F31FA72FA82F972F0130F800C8
:100F54000310A20DA30DA40DA50DF80BAA2F730861
:100F64007702031DBF2F72087602031DBF2F71087D
:100F74007502031DBF2F70087402031CC22FC32FF8
:100F8400D22F7008F4027108031C710FF502720865
:100F9400031C720FF6027308031C730FF70222146A
:100FA40001300310F30CF20CF10CF00CFF3E031DA6
:100FB400D32F0130A002031DE02FE12FA82F210819
:100FC4000319E52FE62FF12FA209A309A409A50906
:100FD400A20A0319A30A0319A40A0319A50A2508D6
:100FE400F3002408F2002308F1002208F0000800AE
:0C0FF400FB01FC0183010A128A11D42EBB
:04400E00D4E0FFFFFC
:00000001FF
