:020000040000FA
:060000000A128A11F92F1B
:100CA600831203138C1E582E592E5A2E1A0808002A
:100CB600831603138501860187018717880183162A
:100CC600031788018901E0308B00080007300A12FB
:100CD6008A1199260A128A110A128A115B260A12A9
:100CE6008A11003083120313A9000030A8002530B2
:100CF600A7008030A6000A128A11F5260A128A1168
:100D06008312031385018601870188010A128A115D
:100D160053260A128A11F900790883120313B600C2
:100D260036088600892E0A128A110028F200D12E72
:100D3600831603130F128F120F13F32E831603134A
:100D46000F168F120F13F32E831603130F128F161F
:100D56000F13F32E831603130F168F160F13F32E8E
:100D6600831603130F128F120F17F32E8316031316
:100D76000F168F120F17F32E831603130F128F16EB
:100D86000F17F32E831603130F168F160F17F32E56
:100D9600831603130F128F160F17F32E7208F00027
:100DA600F1017108003A0319D92ECB2E7008003ACA
:100DB60003199B2E013A0319A12E033A0319A72EF4
:100DC600013A0319AD2E073A0319B32E013A031956
:100DD600B92E033A0319BF2E013A0319C52ECB2E9D
:100DE6000F140800831203132608AA002708AB0075
:100DF6002808AC002908AD0004300310AA0DAB0D7D
:100E0600AC0DAD0DFF3E031D002F2D08F3002C0881
:100E1600F2002B08F1002A08F0002608AE00270889
:100E2600AF002808B0002908B10004300310AE0D49
:100E3600AF0DB00DB10DFF3E031D192F0030B200EE
:100E46001230B3007A30B4000030B5002E08B2027A
:100E56002F08031C2F0F302F312FB3023008031C2D
:100E6600300F362F372FB4023108031C310F3C2FB9
:100E76003D2FB5023508F7003408F6003308F500B3
:100E86003208F4000A128A115C270A128A117008C5
:100E96008316031399001815181283120313981753
:100EA60018168316031398161813831203131813B0
:100EB600080083120313A101F31F622F632F702F03
:100EC600F009F109F209F309F00A0319F10A031905
:100ED600F20A0319F30AA101A10AF71F732F742F4F
:100EE600832FF409F509F609F709F40A0319F50A37
:100EF6000319F60A0319F70A0130F8007808A10663
:100F06000030A5000030A4000030A3000030A2008D
:100F160073087204710470040319922F932FE02F43
:100F2600A001A00AA32F0130F8000310F00DF10D67
:100F3600F20DF30DF80B982F0130F8007808A00792
:100F4600F31FA62FA72F962F0130F8000310A20D2E
:100F5600A30DA40DA50DF80BA92F73087702031D89
:100F6600BE2F72087602031DBE2F71087502031D7F
:100F7600BE2F70087402031CC12FC22FD12F700818
:100F8600F4027108031C710FF5027208031C720F3C
:100F9600F6027308031C730FF702221401300310C4
:100FA600F30CF20CF10CF00CFF3E031DD22F0130B6
:100FB600A002031DDF2FE02FA72F21080319E42F1E
:100FC600E52FF02FA209A309A409A509A20A03196E
:100FD600A30A0319A40A0319A50A2508F30024087D
:100FE600F2002308F1002208F00008008312031320
:0A0FF600B60183010A128A11692E68
:04400E00D4E0FFFFFC
:00000001FF
