:020000040000FA
:060000000A128A11FA2F1A
:100BD200831603131408080083160313141CF22D42
:100BE200F32DED2D0800831203138C1EF92DFA2D1F
:100BF200FB2D1A0808000A128A11ED250A128A1121
:100C02008312031313080800F00083160313981CC1
:100C12000B2E0C2E062E7008831203139900080067
:100C2200F300831603138712731D182E192E1D2E1F
:100C3200720894008715212E70087204940087119F
:100C420073087104831203139400080083160313BC
:100C5200850186018701871788018316031788019A
:100C62008901E0308B00F001F101F20120300A121B
:100C72008A1111260A128A110800F200762E8316B2
:100C820003130F128F120F13982E831603130F16CE
:100C92008F120F13982E831603130F128F160F1332
:100CA200982E831603130F168F160F13982E831682
:100CB20003130F128F120F17982E831603130F169A
:100CC2008F120F17982E831603130F128F160F17FA
:100CD200982E831603130F168F160F17982E83164E
:100CE20003130F128F160F17982E7208F000F101DE
:100CF2007108003A03197E2E702E7008003A03190B
:100D0200402E013A0319462E033A03194C2E013A9A
:100D12000319522E073A0319582E013A03195E2E6F
:100D2200033A0319642E013A03196A2E702E0F1426
:100D3200080007300A128A113E260A128A110A1284
:100D42008A1127260A128A11003083120313A9007E
:100D52000030A8002530A7008030A6000A128A11B0
:100D6200F6260A128A11831203138501860187016E
:100D720088010A128A11F4250A128A11F9007908E7
:100D8200FC007C0883120313860085120330FA00EC
:100D92009730F900F90BCB2EFA0BCB2ED02E0A127C
:100DA2008A11E9250A128A110A128A11FC250A12ED
:100DB2008A11F9007908FB007B080A128A110526BC
:100DC2000A128A110D30FA00FB30F900F90BE72EF6
:100DD200FA0BE72EEC2E7B080A128A1105260A125C
:100DE2008A11BA2E0A128A110028831203132608C6
:100DF200AA002708AB002808AC002908AD0004307F
:100E02000310AA0DAB0DAC0DAD0DFF3E031D012F5E
:100E12002D08F3002C08F2002B08F1002A08F0003C
:100E22002608AE002708AF002808B0002908B10044
:100E320004300310AE0DAF0DB00DB10DFF3E031D1A
:100E42001A2F0030B2001230B3007A30B4000030F2
:100E5200B5002E08B2022F08031C2F0F312F322F9C
:100E6200B3023008031C300F372F382FB402310879
:100E7200031C310F3D2F3E2FB5023508F700340811
:100E8200F6003308F5003208F4000A128A115D27D1
:100E92000A128A1170088316031399001815181282
:100EA2008312031398171816831603139816181330
:100EB200831203131813080083120313A101F31FF3
:100EC200632F642F712FF009F109F209F309F00A77
:100ED2000319F10A0319F20A0319F30AA101A10A7B
:100EE200F71F742F752F842FF409F509F609F709F6
:100EF200F40A0319F50A0319F60A0319F70A01306D
:100F0200F8007808A1060030A5000030A4000030E7
:100F1200A3000030A2007308720471047004031964
:100F2200932F942FE12FA001A00AA42F0130F800E3
:100F32000310F00DF10DF20DF30DF80B992F0130A6
:100F4200F8007808A007F31FA72FA82F972F0130CA
:100F5200F8000310A20DA30DA40DA50DF80BAA2FE6
:100F620073087702031DBF2F72087602031DBF2F7D
:100F720071087502031DBF2F70087402031CC22F73
:100F8200C32FD22F7008F4027108031C710FF502EF
:100F92007208031C720FF6027308031C730FF70228
:100FA200221401300310F30CF20CF10CF00CFF3E92
:100FB200031DD32F0130A002031DE02FE12FA82F24
:100FC20021080319E52FE62FF12FA209A309A4098D
:100FD200A509A20A0319A30A0319A40A0319A50A57
:100FE2002508F3002408F2002308F1002208F0008B
:0E0FF2000800FB01FC0183010A128A119A2EED
:04400E00D4E0FFFFFC
:00000001FF
