:020000040000FA
:060000000A128A110E280D
:10000800FE00030EF4000408F5000A08F6000A12C0
:100018008A117F290A128A111128F701F801F901BA
:1000280083120313C00183010A128A11C3298312A0
:100038000313AA01A31F212822282F28A009A109F8
:10004800A209A309A00A0319A10A0319A20A0319FC
:10005800A30AAA01AA0AA71F322833284228A409FA
:10006800A509A609A709A40A0319A50A0319A60A36
:100078000319A70A0130A8002808AA060030AE0014
:100088000030AD000030AC000030AB002308220483
:10009800210420040319512852289F28A901A90ADC
:1000A80062280130A8000310A00DA10DA20DA30D18
:1000B800A80B57280130A8002808A907A31F6528FE
:1000C800662855280130A8000310AB0DAC0DAD0D06
:1000D800AE0DA80B682823082702031D7D282208D7
:1000E8002602031D7D2821082502031D7D282008DE
:1000F8002402031C8028812890282008A4022108B3
:10010800031C210FA5022208031C220FA6022308A4
:10011800031C230FA7022B1401300310A30CA20CFD
:10012800A10CA00CFF3E031D91280130A902031D5C
:100138009E289F2866282A080319A328A428AF28E0
:10014800AB09AC09AD09AE09AB0A0319AC0A03192E
:10015800AD0A0319AE0A2E08A3002D08A2002C0828
:10016800A1002B08A0000800831203132F08B30076
:100178003008B4003108B5003208B6000430031066
:10018800B30DB40DB50DB60DFF3E031DC3283608DB
:10019800A3003508A2003408A1003308A0002F08E6
:1001A800B7003008B8003108B9003208BA00043086
:1001B8000310B70DB80DB90DBA0DFF3E031DDC28AD
:1001C8000030BB001230BC007A30BD000030BE00E9
:1001D8003708BB023808031C380FF328F428BC0280
:1001E8003908031C390FF928FA28BD023A08031CFC
:1001F8003A0FFF280029BE023E08A7003D08A600C6
:100208003C08A5003B08A4000A128A111B200A1208
:100218008A118312031320088316031399001815F3
:1002280018128312031398171816831603139816B7
:100238001813831203131813080083120313A20060
:100248005B29831603130F128F120F137D29831650
:1002580003130F168F120F137D29831603130F1222
:100268008F160F137D29831603130F168F160F137E
:100278007D29831603130F128F120F177D298316FA
:1002880003130F168F120F177D29831603130F12EE
:100298008F160F177D29831603130F168F160F1746
:1002A8007D29831603130F128F160F177D29220835
:1002B800A000A1012108003A031963295529200843
:1002C800003A03192529013A03192B29033A03197E
:1002D8003129013A03193729073A03193D29013A07
:1002E80003194329033A03194929013A03194F29E4
:1002F80055290F140800831203130C1F842985291C
:10030800A8290C137708031D8A298B2997290030FF
:100318000A128A11F3210A128A11831203131E0882
:10032800F3007308F9007703031D9B299C29A8296A
:1003380003300A128A11F3210A128A118312031355
:100348001E08F3007308F8000B1DAB29AC29BA2965
:100358000B11443081000130F3007308F7070330B4
:100368007702031CB829B929BA29F70176088A0047
:1003780075088400740E8300FE0E7E0E0900073097
:100388000A128A1121210A128A110A128A113222AA
:100398000A128A11003083120313B2000030B10030
:1003A8002530B0008030AF000A128A11B8200A1236
:1003B8008A118312031385018601870188010A12B5
:1003C8008A114B220A128A1183120313BF003F08B5
:1003D800C00040088600E3290A128A110E28F2009C
:1003E800032A831203131F119F111F129F12132A2E
:1003F800831203131F159F151F129F12132A7208C9
:10040800F000F1017108003A03190B2A132A700849
:10041800003A0319F529033A0319FC29132A08009D
:1004280083120313A3008316031387128312031383
:10043800231D1F2A202A262A220883160313940024
:1004480087152C2A20082204831603139400871189
:10045800831203132308210494000800831603134E
:10046800850186018701871788018316031788018C
:100478008901E0308B0083120313A001A101A201BE
:1004880020300A128A1114220A128A1108008312D3
:0E04980003138C1E502A512A522A1A080800FB
:04400E00D4E0FFFFFC
:00000001FF
