:020000040000FA
:060000000A128A11FB2F19
:100C6C00831203138C1E3B2E3C2E3D2E1A080800BB
:100C7C00F300831603138712731D452E462E4A2E3E
:100C8C007208940087154E2E700872049400871118
:100C9C007308710483120313940008008316031362
:100CAC008501860187018717880183160317880140
:100CBC008901E0308B00F001F101F20120300A12C1
:100CCC008A113E260A128A11080007300A128A116C
:100CDC009B260A128A110A128A1154260A128A11A8
:100CEC00003083120313A9000030A8002530A700A0
:100CFC008030A6000A128A11F7260A128A11831272
:100D0C00031385018601870188010A128A11362690
:100D1C000A128A11F9007908FA007A08831203136F
:100D2C0086008B2E0A128A110028F200D32E83160D
:100D3C0003130F128F120F13F52E831603130F16B6
:100D4C008F120F13F52E831603130F128F160F131A
:100D5C00F52E831603130F168F160F13F52E83160D
:100D6C0003130F128F120F17F52E831603130F1682
:100D7C008F120F17F52E831603130F128F160F17E2
:100D8C00F52E831603130F168F160F17F52E8316D9
:100D9C0003130F128F160F17F52E7208F000F101C6
:100DAC007108003A0319DB2ECD2E7008003A031996
:100DBC009D2E013A0319A32E033A0319A92E013AC9
:100DCC000319AF2E073A0319B52E013A0319BB2E9E
:100DDC00033A0319C12E013A0319C72ECD2E0F1455
:100DEC000800831203132608AA002708AB00280862
:100DFC00AC002908AD0004300310AA0DAB0DAC0DEE
:100E0C00AD0DFF3E031D022F2D08F3002C08F20040
:100E1C002B08F1002A08F0002608AE002708AF00C6
:100E2C002808B0002908B10004300310AE0DAF0D36
:100E3C00B00DB10DFF3E031D1B2F0030B200123060
:100E4C00B3007A30B4000030B5002E08B2022F087F
:100E5C00031C2F0F322F332FB3023008031C300F1B
:100E6C00382F392FB4023108031C310F3E2F3F2F7E
:100E7C00B5023508F7003408F6003308F5003208DF
:100E8C00F4000A128A115E270A128A11700883165E
:100E9C0003139900181518128312031398171816B8
:100EAC0083160313981618138312031318130800D0
:100EBC0083120313A101F31F642F652F722FF00906
:100ECC00F109F209F309F00A0319F10A0319F20AFC
:100EDC000319F30AA101A10AF71F752F762F852F8D
:100EEC00F409F509F609F709F40A0319F50A0319C7
:100EFC00F60A0319F70A0130F8007808A106003049
:100F0C00A5000030A4000030A3000030A20073083C
:100F1C007204710470040319942F952FE22FA00111
:100F2C00A00AA52F0130F8000310F00DF10DF20D01
:100F3C00F30DF80B9A2F0130F8007808A007F31F77
:100F4C00A82FA92F982F0130F8000310A20DA30D84
:100F5C00A40DA50DF80BAB2F73087702031DC02F42
:100F6C0072087602031DC02F71087502031DC02F75
:100F7C0070087402031CC32FC42FD32F7008F40203
:100F8C007108031C710FF5027208031C720FF60234
:100F9C007308031C730FF702221401300310F30CB7
:100FAC00F20CF10CF00CFF3E031DD42F0130A0020B
:100FBC00031DE12FE22FA92F21080319E62FE72F9C
:100FCC00F22FA209A309A409A509A20A0319A30ACD
:100FDC000319A40A0319A50A2508F3002408F20032
:100FEC002308F1002208F0000800FA0183010A121C
:040FFC008A116B2EBD
:04400E00D4E0FFFFFC
:00000001FF
